S00F00007072656C6162352E737265636A
S11300000C945A000C9464000C9464000C946400E6
S11300100C9464000C9464000C9464000C946400CC
S11300200C9464000C9464000C9464000C946400BC
S11300300C9464000C9464000C9464000C946400AC
S11300400C9464000C9464000C9464000C9464009C
S11300500C9464000C94A2000C9464000C9464004E
S11300600C9464000C9464000C9464000C9464007C
S11300700C9464000C9464000C9464000C9464006C
S11300800C9464000C9464000C9464000C9464005C
S11300900C9464000C9464000C9464000C9464004C
S11300A00C9464000C9464000C9464000C9464003C
S11300B00C94640011241FBECFEFD8E0DEBFCDBF87
S11300C00E9490000C9425010C940000ECE7F0E0F1
S11300D010828081806480838081806280838081BB
S11300E086608083EAE7F0E0108280818360808309
S11300F0808180688083808188608083808180643F
S113010080830895F894E1E6F0E080E8808384E059
S113011080830E94660084B1826084B978940895D3
S11301200E94820060E470E088E391E00E94B700DE
S11301308091790045E250E067E070E090E00E9431
S1130140FC00F6CF1F920F920FB60F9211248F93DB
S1130150EF93FF93EAE7F0E0808180648083FF916E
S1130160EF918F910F900FBE0F901F9018959C01E7
S113017094B1926094B982E88093800088E180937E
S11301808100309387002093860060347105E1F08C
S113019038F46130710561F06830710579F026C07A
S11301A0611581E07807B1F061157440C9F01EC093
S11301B0E1E8F0E08081816080830895E1E8F0E087
S11301C08081826080830895E1E8F0E0808183602B
S11301D080830895E1E8F0E080818460808308955D
S11301E0E1E8F0E08081856080830895E1E8F0E053
S11301F08081836080830895FB01461B570B489FD1
S11302009001499F300D589F300D1124A1E8B0E8AA
S11302100E941601880F892F881F990B91958E0FC4
S11302209F1F90938900809388000895A29FB00136
S1130230B39FC001A39F700D811D1124911DB29F16
S1110240700D811D1124911D0895F894FFCFB7
S9030000FC
