:100000000C945A000C9464000C9464000C946400EA
:100010000C9464000C9464000C9464000C946400D0
:100020000C9464000C9464000C9464000C946400C0
:100030000C9464000C9464000C9464000C946400B0
:100040000C9464000C9464000C94AE000C94640056
:100050000C9464000C9464000C9464000C94640090
:100060000C9464000C9464000C9464000C94640080
:100070000C9464000C9464000C9464000C94640070
:100080000C9464000C9464000C9464000C94640060
:100090000C9464000C9464000C9464000C94640050
:1000A0000C9464000C9464000C9464000C94640040
:1000B0000C94640011241FBECFEFD8E0DEBFCDBF8B
:1000C0000E949C000C94E5000C9400008AB18260B0
:1000D0008AB98AB18E7F8AB91092C000E1ECF0E053
:1000E000808188698083E2ECF0E080818660808393
:1000F00087E690E09093C5008093C4000895F8943B
:100100000E94660084B18F6384B985B1807C85B913
:1001100087B1836087B988B18C7F88B97894089556
:100120009091C000907203C09091C000907299238A
:10013000D9F38093C60008950E947F0088E40E944E
:1001400090008FE60E9490008CE60E94900081E66D
:100150000E9490008EE20E949000FFCF1F920F92AB
:100160000FB60F9211242F933F934F935F936F938A
:100170007F938F939F93AF93BF93CF93EF93FF930F
:10018000C091C6008C2F0E94900085B1807C9C2F6E
:100190009F73892B85B988B18C7FC295C695C6950A
:1001A000C370C82BC8B9FF91EF91CF91BF91AF91A8
:1001B0009F918F917F916F915F914F913F912F917F
:0E01C0000F900FBE0F901F901895F894FFCF70
:00000001FF
