S01400006C61626F7261746F72696F342E737265633E
S11300000C945A000C9477000C9477000C942901FA
S11300100C9477000C9477000C9477000C94770080
S11300200C9477000C9477000C9477000C94770070
S11300300C9477000C9477000C9477000C94770060
S11300400C9412010C9477000C9477000C947700B4
S11300500C9477000C94F2000C9477000C947700C5
S11300600C9477000C9477000C9477000C94770030
S11300700C9477000C9477000C9477000C94770020
S11300800C9477000C9477000C9477000C94770010
S11300900C9477000C9477000C9477000C94770000
S11300A00C9477000C9477000C9477000C947700F0
S11300B00C94770011241FBECFEFD8E0DEBFCDBF74
S11300C011E0A0E0B1E0EAE8F2E002C005900D9290
S11300D0A031B107D9F721E0A0E1B1E001C01D9240
S11300E0A431B207E1F70E94EB000C9443010C9495
S11300F00000ECE7F0E010828081806480838081DE
S113010080628083808186608083EAE7F0E01082E9
S1130110808183608083808180688083808188601F
S113012080838081806480830895F894E1E6F0E020
S113013080E8808384E080838FEF87B918B88AB918
S11301401092C1001BB880E184B98FEE85B914BC4C
S113015083E085BD82EB86BD81E080936E00809351
S113016068008CE080936B000E9479007894089575
S113017080911201813071F018F08230A9F01AC018
S113018084E088B9E0911001F0E0E050FF4F8081F5
S11301908BB9089588E088B9E0911101F0E0E0504E
S11301A0FF4F80818BB9089582E088B98091130153
S11301B08BB908951092120108959091790080915D
S11301C01301981720F085B1806185B9089585B130
S11301D08F7E85B908950E9495000E94B8000E9400
S11301E0DD00FBCF1F920F920FB60F9211248F9355
S11301F0EF93FF93E9E7F0E080818F708093110122
S1130200808182958F7080931001EAE7F0E080810D
S113021080648083FF91EF918F910F900FBE0F90B8
S11302201F9018951F920F920FB60F9211248F935F
S113023082EB86BD809112018F5F8093120183301F
S113024011F4109212018F910F900FBE0F901F9016
S113025018951F920F920FB60F9211248F931A992B
S113026005C0809113018F5F809313011B9905C012
S1130270809113018150809313018F910F900FBED1
S10D02800F901F901895F894FFCF1B
S113028A7E306D79335B5F707F7B771F4E3D4F47BE
S9030000FC
