S011000050726F796563746F322E737265638C
S11300000C945A000C946C000C946C000C949D029B
S11300100C946C000C946C000C946C000C946C00AC
S11300200C946C000C946C000C946C000C946C009C
S11300300C946C000C946C000C946C000C946C008C
S11300400C946C000C946C000C943C030C946C00A9
S11300500C946C000C94AF010C946C000C946C0028
S11300600C946C000C946C000C946C000C946C005C
S11300700C946C000C946C000C946C000C946C004C
S11300800C946C000C946C000C946C000C946C003C
S11300900C946C000C946C000C946C000C946C002C
S11300A00C946C000C946C000C946C000C946C001C
S11300B00C946C0011241FBECFEFD8E0DEBFCDBF7F
S11300C021E0A0E0B1E001C01D92A931B207E1F73F
S11300D00E9422010C94C8040C940000ECE7F0E0A8
S11300E010828081806480838081806280838081AB
S11300F086608083EAE7F0E01082808183608083F9
S1130100808180688083808188608083808180642E
S11301108083089582EA80938000E1E8F0E088E13A
S1130120808380818360808388E391E0909387005B
S113013080938600089583EA8093B000E1EBF0E0B9
S113014080818460808308958AB182608AB98AB18B
S11301508E7F8AB9E0ECF0E0108280818260808337
S1130160E1ECF0E0808188698083E2ECF0E080815A
S1130170866080838CE090E09093C5008093C400F7
S11301800895F894E1E6F0E080E8808384E08083D9
S11301900E946E000E94A40084B1826084B984B17C
S11301A0846084B984B1886084B98AB188608AB96A
S11301B00E948A000E949B0084B18E7F84B985B11D
S11301C0816085B9E8E6F0E0808181608083EBE6B8
S11301D0F0E080818160808384B1806184B984B1DE
S11301E0806284B98AB180688AB91092170110922A
S11301F0180178940895E0910001E93068F491E0E1
S11302009E0F90930001F0E0E35FFE4F8083E92F9F
S1130210F0E0E35FFE4F10820895F999FECF72BDBE
S113022061BD80BD8FB384608FBB8FB382608FBB91
S11302300895F999FECF92BD81BD8FB381608FBBC4
S113024080B508950E94C100809118018230E1F7C1
S1130250809107018130F9F480E090E00E94190157
S113026090E0909389008093880081E090E00E9460
S113027019018093B30082E090E00E94190190E09C
S113028090938B0080938A0083E090E00E94190190
S11302908093B400D9CF8230F9F484E090E00E94D6
S11302A0190190E0909389008093880085E090E0A4
S11302B00E9419018093B30086E090E00E94190126
S11302C090E090938B0080938A0087E090E00E94F6
S11302D019018093B400B8CF8330F9F488E090E03A
S11302E00E94190190E0909389008093880089E02E
S11302F090E00E9419018093B3008AE090E00E948C
S1130300190190E090938B0080938A008BE090E039
S11303100E9419018093B40097CF843009F094CFE0
S11303208CE090E00E94190190E090938900809302
S113033088008DE090E00E9419018093B3008EE064
S113034090E00E94190190E090938B0080938A00C2
S11303508FE090E00E9419018093B40075CF1F9242
S11303600F920FB60F9211240F931F932F935F9345
S11303706F937F938F939F93AF93BF93CF93DF93A9
S1130380EF93FF9380911701823099F1833009F440
S113039062C0813009F089C0809118018130E1F494
S11303A0C9E7D0E088812EE1289FC0011124EFEF36
S11303B0F0E0BF010E947A04695F7F4F7093890067
S11303C0609388008881289FC0011124BF010E9486
S11303D07A04695F60930B01ECE7F0E0108280819E
S11303E08064808380818062808380818360808355
S11303F087C080911801813009F509E710E0D80120
S11304008C912EE1289FC0011124CFEFD0E0BE01D2
S11304100E947A04695F7F4FEAE8F0E071836083A9
S1130420D8018C91289FC0011124BE010E947A0436
S1130430695F7F4F7183608360930901ECE7F0E0AB
S11304401082808180648083808180628083808147
S11304508560808355C0809118018130C9F4C9E753
S1130460D0E088812EE1289FC0011124EFEFF0E055
S1130470BF010E947A04695F6093B3008881289F5A
S1130480C0011124BF010E947A04695F60930A01CC
S1130490ECE7F0E010828081806480838081806258
S11304A080838081846080832BC080911801813097
S11304B0C9F4C9E7D0E088812EE1289FC001112446
S11304C0EFEFF0E0BF010E947A04695F6093B4002B
S11304D08881289FC0011124BF010E947A04695FAA
S11304E060930801ECE7F0E01082808180648083EF
S11304F0808180628083808186608083109217016E
S1130500809117018F5F80931701EAE7F0E0808103
S113051080648083FF91EF91DF91CF91BF91AF9180
S11305209F918F917F916F915F912F911F910F9167
S11305300F900FBE0F901F9018951F920F920FB639
S11305400F9211242F933F934F935F936F937F9355
S11305508F939F93AF93BF93EF93FF938091070182
S11305608130E9F4809188009091890060E070E026
S11305700E940D018091B30061E070E00E940D01C2
S113058080918A0090918B0062E070E00E940D01DE
S11305908091B40063E070E00E940D015CC0823081
S11305A0E9F4809188009091890064E070E00E94F1
S11305B00D018091B30065E070E00E940D0180910F
S11305C08A0090918B0066E070E00E940D0180919A
S11305D0B40067E070E00E940D013DC08330E9F48F
S11305E0809188009091890068E070E00E940D017C
S11305F08091B30069E070E00E940D0180918A004F
S113060090918B006AE070E00E940D018091B4002B
S11306106BE070E00E940D011EC08430E1F4809113
S11306208800909189006CE070E00E940D01809137
S1130630B3006DE070E00E940D0180918A009091FA
S11306408B006EE070E00E940D018091B4006FE0B9
S113065070E00E940D01FF91EF91BF91AF919F91C6
S11306608F917F916F915F914F913F912F910F9057
S11306700FBE0F901F9018951F920F920FB60F92F6
S113068011242F933F934F935F936F937F938F9393
S11306909F93AF93BF93CF93EF93FF93C091C60003
S11306A080910601882331F1C13351F48BB18F77E6
S11306B08BB985B1806285B981E08093180117C038
S11306C0C23351F482E0809318018BB180688BB9F6
S11306D085B18F7D85B90BC0C33349F485B1806280
S11306E085B98BB180688BB983E08093180110922F
S11306F00601BBC080910501882329F1C834F9F4AF
S11307008DE091E00E94A20480930C019091180165
S1130710933071F42EE1829FC00111246FEF70E0D9
S11307200E947A04695F7F4F709389006093880008
S1130730109205011092000110920D0196C08C2FA9
S11307400E94FB0092C080910401882329F1C834DF
S1130750F9F48DE091E00E94A20480930C01909141
S11307601801933071F42EE1829FC00111246FEFC0
S113077070E00E947A04695F7F4F70938B006093EE
S11307808A00109204011092000110920D016DC0B4
S11307908C2F0E94FB0069C080910301882311F112
S11307A0C834E1F48DE091E00E94A20480930C012E
S11307B090911801933059F42EE1829FC0011124C5
S11307C06FEF70E00E947A04695F6093B300109247
S11307D003011092000110920D0147C08C2F0E945A
S11307E0FB0043C080910201882311F1C834E1F475
S11307F08DE091E00E94A20480930C019091180175
S1130800933059F42EE1829FC00111246FEF70E000
S11308100E947A04695F6093B400109202011092FE
S1130820000110920D0121C08C2F0E94FB001DC0FD
S1130830809101018823C9F0C13321F481E08093C0
S1130840070111C0C23321F482E0809307010BC079
S1130850C33321F483E08093070105C0C43319F442
S113086084E08093070110920101CE3221F481E0EB
S1130870809306012DC0C13441F481E080930501C9
S11308801092000110920D0123C0C23441F481E0A2
S1130890809304011092000110920D0119C0C33419
S11308A041F481E0809303011092000110920D0144
S11308B00FC0C43441F481E080930201109200011E
S11308C010920D0105C0C03519F481E08093010137
S11308D0FF91EF91CF91BF91AF919F918F917F91B4
S11308E06F915F914F913F912F910F900FBE0F9099
S11308F01F90189597FB072E16F4009407D077FDE8
S113090009D00E948E0407FC05D03EF49095819591
S11309109F4F0895709561957F4F0895AA1BBB1B47
S113092051E107C0AA1FBB1FA617B70710F0A61BEB
S1130930B70B881F991F5A95A9F780959095BC010C
S1130940CD010895FC0188279927E894219120324C
S1130950E9F3293010F02E30C8F32B3241F02D3258
S113096039F4689404C00E94C004820F911D21913F
S113097020532A30C0F31EF4909581959F4F08951B
S11309807AE0979F902D879F802D910D11240895D3
S1070990F894FFCF05
S9030000FC
