:020000020000FC
:0200000025C019
:02000C0000C230
:10004000B6C27E306D79335B5F707F7BF8940FEFC3
:100050000DBF08E00EBF00E80093610004E00093CC
:1000600061000E94020200E00093C1000FEF0AB994
:1000700000E00BB901E204B90EE105B90FEF07B9D1
:1000800000E008B901E000936E0001E00093680011
:100090000EE100936B00112400276627FF2422271E
:1000A000EE24DD24CC24BB24AA24332741E05527A9
:1000B00001E0902E702E8824662477278827552407
:1000C0004424332422249927AA2778940F2D043618
:1000D00009F002C0189AFF2440FFA4C00A2D013085
:1000E00009F025C0AA24E3940E2D0A3009F01FC0A0
:1000F000EE24D3940D2D063009F019C0DD24C394ED
:100100000B2D023021F00C2D0A3029F010C00C2DDF
:10011000043039F00CC0CC24B3940B2D033009F01B
:1001200006C09394EE24DD24CC24BB2400C0062D0D
:100130000130A1F0072D0130C1F00230C9F00330C9
:10014000F1F00430F9F0053001F1063009F1073023
:1001500011F1083019F1093021F164C0072D003088
:1001600019F1013021F1023029F10E94E8005AC052
:10017000082D0230B9F1092D093089F153C00E94D0
:10018000E80050C00E94DD004DC00E94E8004AC057
:100190000E94DD0047C00E94E80044C00E94E800C1
:1001A00041C00E94DD003EC00E94E8003BC00E94AA
:1001B000DD0038C00E94E80035C0082D033021F072
:1001C000092D0A3061F00895092D013099F0089544
:1001D000082D033059F0092D0A3009F008959924AB
:1001E000839420C0092D093029F01CC0092D02304C
:1001F00009F0089588247394062D013049F001E038
:10020000902E072D0A3009F00DC0772463940AC0A0
:10021000072D033009F006C001E0902E702E8824CF
:10022000662400C0203051F0213039F0223041F0F6
:10023000233029F0243029F049CF04C03BC047C007
:1002400050C08DC04598449A41E0552777270E94B9
:100250002D0181FD0E94F30139CFE2E4F0E030305E
:1002600031F0313061F0323091F03330C1F04098EC
:1002700041984298439A0E2DE00FF11D18C0409806
:100280004198429A43980D2DE00FF11D10C04098FF
:10029000419A429843980C2DE00FF11D08C0409AF6
:1002A0004198429843980B2DE00FF11D00C0049136
:1002B0000BB9089545980A2F043609F002C0349A04
:1002C000AA2751E0442777270E942D01FFCE4498AA
:1002D000459A41E077270E94820181FD0E94F30147
:1002E000F5CE41E071E044980A2F043631F00E94C7
:1002F000820181FD0E94F301E9CE359AAA270E946E
:100300008201E4CEE2E4F0E0303031F0313061F0EF
:10031000323091F03330C1F0409841984298439A7E
:10032000072DE00FF11D18C040984198429A43985C
:10033000062DE00FF11D10C04098419A4298439855
:10034000092DE00FF11D08C0409A4198429843984A
:10035000082DE00FF11D00C004910BB9089581FD37
:100360000EC00A2F043609F003C0349A359AAA2722
:1003700041E081E0772755270E94C601A7CE449A25
:10038000459A0E94F3010E94C601A0CEE2E4F0E08B
:10039000303031F0313061F0323091F03330C1F033
:1003A000409841984298439A052DE00FF11D18C0DE
:1003B00040984198429A4398042DE00FF11D77CF61
:1003C0004098419A42984398032DE00FF11D08C0D0
:1003D000409A419842984398022DE00FF11D00C0C9
:1003E00004910BB908955E1409F00BC0D41409F000
:1003F00008C0C31409F005C0B21409F002C02D9A58
:1004000084E0089503E005BD02EB06BD08951F9347
:100410001FB71F93199B07C01A9B0FC01B9B6CC073
:100420001C9BBAC0C0C0843011F082E0BCC02D98C3
:100430005524442433242224B6C05130B9F08130ED
:10044000C1F1713009F0AFC07394162D113039F03D
:10045000172D1A3009F0A7C077246394A4C0172D74
:10046000133009F0A0C011E0712E66241E2D10304B
:1004700011F0EA9498C019E0E12E1D2D103011F012
:10048000DA9491C015E0D12E1C2D103011F0CA94D1
:100490008AC019E0C12E1B2D103011F0BA9483C010
:1004A00019E0E12E15E0D12E13E0C12E12E0B12E9D
:1004B0007AC0152D103011F05A9475C019E0512EE4
:1004C000142D103011F04A946EC015E0412E132DFA
:1004D000103011F03A9467C019E0312E122D10300F
:1004E00011F02A9460C019E0512E15E0412E13E05E
:1004F000312E12E0212E57C0513039F0713019F0F1
:10050000813039F150C093944EC01E2D193011F036
:10051000E39449C0EE241D2D153011F0D39443C04F
:10052000DD241B2D123029F01C2D193039F0C39415
:100530003AC01C2D133044F4C39435C0CC241B2D79
:10054000123011F0B3942FC0EE24DD24CC24BB2450
:100550002AC05394052D0A3009F025C05524439430
:10056000042D063009F01FC044243394022D0230BC
:1005700021F0032D0A3029F016C0032D03303CF47E
:1005800012C033242394022D033009F00CC05524EB
:1005900044243324222407C0122F143011F0239551
:1005A00002C0222700C01F911FBF1F9118951F93E3
:1005B0001FB71F9312EB16BD6395F394A395683C88
:1005C00009F005C0662710E04113A3949395339575
:0C05D00032FD33271F911FBF1F911895AB
:00000001FF
