:100000000C945A000C946C000C946C000C949C00A2
:100010000C946C000C946C000C946C000C946C00B0
:100020000C946C000C946C000C946C000C946C00A0
:100030000C946C000C946C000C946C000C946C0090
:100040000C948E000C946C000C946C000C946C005E
:100050000C946C000C946C000C946C000C946C0070
:100060000C946C000C946C000C946C000C946C0060
:100070000C946C000C946C000C946C000C946C0050
:100080000C946C000C946C000C946C000C946C0040
:100090000C946C000C946C000C946C000C946C0030
:1000A0000C946C000C946C000C946C000C946C0020
:1000B0000C946C0011241FBECFEFD8E0DEBFCDBF83
:1000C00021E0A0E0B1E001C01D92A130B207E1F74C
:1000D0000E9488000C94B6000C940000F89480E80C
:1000E000809361008FEF8AB91092C1001BB814B8D9
:1000F00085B914BC83E085BD82EB86BD81E0809329
:100100006E00809368008CE080936B007894089573
:100110000E946E00809100018BB9FCCF1F920F925C
:100120000FB60F9211248F9382EB86BD8F910F90A3
:100130000FBE0F901F9018951F920F920FB60F923F
:1001400011248F931A9905C0809100018F5F8093CD
:1001500000011B9905C0809100018150809300012E
:100160008F910F900FBE0F901F901895F894FFCFAE
:00000001FF
