:020000020000FC
:0200000020C01E
:02000C008CC0A6
:100040005DC00FEF0DBF08E00EBFA0E0B1E07E3055
:100050006D79335B5F707F7BF0E0EEE4B1E0A0E0B0
:10006000D1E0C0E051E165915A95503011F06D93A7
:10007000FACFF894A0E0B1E0C0E0D1E000E800934E
:10008000610004E0009361000E94790000E00093A9
:10009000C1000FEF0AB900E00BB901E000936E0058
:1000A00000E004B90FEF05B90FEF07B900E108B997
:1000B00001E00093680008E100936B0090E060E0CD
:1000C00070E020E030E07894843609F0FDCF882796
:1000D00023952A3011F01196F7CF2227A0E0B1E046
:1000E0003395363011F02196EFCF3327C0E0D1E0C1
:1000F000EBCF03E005BD04E606BD08951F931FB7CF
:100100001F93A89A14E616BD8395349A359A459B99
:1001100003C07C917BB903C068816BB900C01F919B
:100120001FBF1F9118950F930FB70F9303B103FFD4
:10013000939504FF9A959F7008B10073090F08B951
:080140000F910FBF0F911895FC
:00000001FF
