:100000000C945A000C9477000C9477000C947700B1
:100010000C9477000C9477000C9477000C94770084
:100020000C9477000C9477000C9477000C94770074
:100030000C9477000C9477000C9477000C94770064
:100040000C9477000C9477000C941D010C947700AD
:100050000C9477000C94D8010C9477000C947700E2
:100060000C9477000C9477000C9477000C94770034
:100070000C9477000C9477000C9477000C94770024
:100080000C9477000C9477000C9477000C94770014
:100090000C9477000C9477000C9477000C94770004
:1000A0000C9477000C9477000C9477000C947700F4
:1000B0000C94770011241FBECFEFD8E0DEBFCDBF78
:1000C00012E0A0E0B1E0E0E5F4E002C005900D929E
:1000D000A631B107D9F722E0A6E1B2E001C01D9236
:1000E000A831B207E1F70E9400010C9426020C949B
:1000F00000008AB182608AB98AB18E7F8AB9109273
:10010000C000E1ECF0E0808188698083E2ECF0E0FF
:1001100080818660808387E690E09093C50080931D
:10012000C40008959091C000907203C09091C000E7
:1001300090729923D9F38093C60008950F931F936B
:10014000CF93DF938C01C0E0D0E003C00E94920007
:100150002196F801EC0FFD1F80818111F7CFDF910F
:10016000CF911F910F91089580E091E00E949E0031
:1001700080E391E00E949E0080E091E00E949E005A
:1001800080E691E00E949E008CE791E00E949E0034
:1001900080E091E00E949E0080E091E00E949E003D
:1001A0000895ECE7F0E01082808180648083808194
:1001B00080628083808187608083EAE7F0E010823C
:1001C0008081836080838081806880838081886073
:1001D00080838081806480830895F8940E947900F0
:1001E0000E94D10084B18F6384B985B1807C85B9C8
:1001F00087B1836087B988B18C7F88B97894089576
:100200000E94ED000E94B400FFCFCF93DF9300D097
:1002100000D0CDB7DEB74AE0BE016F5F7F4F90E000
:100220000E94F101CE0101960E949E000F900F9056
:100230000F900F90DF91CF9108951F920F920FB6FC
:100240000F9211242F933F934F935F936F937F935C
:100250008F939F93AF93BF93CF93EF93FF93C091EF
:10026000C600C13309F04BC080911702813019F5E7
:1002700084E192E00E949E0084E192E00E949E0050
:100280008AE991E00E949E0084E192E00E949E0033
:1002900085B1807C9C2F9F73892B85B988B18C7F19
:1002A000C295C695C695C370C82BC8B90E94B40044
:1002B000109217026BC084E192E00E949E008EEAC9
:1002C00091E00E949E00809116020E94050184E147
:1002D00092E00E949E0085B1909116029F73807CEF
:1002E000892B85B988B1909116029295969596952D
:1002F00093708C7F892B88B90E94B40047C0C233A9
:1003000071F484E192E00E949E008EEC91E00E94E4
:100310009E0015B818B881E08093170237C080910D
:100320001702813019F584E192E00E949E0084E179
:1003300092E00E949E008AE991E00E949E0084E182
:1003400092E00E949E0085B1807C9C2F9F73892B38
:1003500085B988B18C7FC295C695C695C370C82BE8
:10036000C8B90E94B4001092170210C018B815B88E
:1003700084E192E00E949E0084EE91E00E949E0043
:1003800084E192E00E949E000E94B400FF91EF91F0
:10039000CF91BF91AF919F918F917F916F915F911D
:1003A0004F913F912F910F900FBE0F901F90189576
:1003B0001F920F920FB60F9211248F93EF93FF931A
:1003C0008091790080931602EAE7F0E080818064F2
:1003D0008083FF91EF918F910F900FBE0F901F9030
:1003E0001895BB274A3031F4992322F4BDE2909549
:1003F00081959F4F0C94FD01BB27FB015527AA2730
:10040000880F991FAA1FA41710F0A41B83955051A1
:10041000B9F7A05DAA3308F0A95DA193009779F719
:10042000B111B1931192CB010C941602DC01FC01C5
:10043000672F71917723E1F7329704C07C916D9318
:1004400070836291AE17BF07C8F30895F894FFCF89
:100450002D2D2D2D2D2D2D2D2D2D2D2D2D2D2D2DCC
:100460002D2D2D2D2D2D2D2D2D2D2D2D2D2D2D2DBC
:100470002D2D2D2D2D2D2D2D2D2D2D2D2D2D0A00FC
:100480002D2D2D2D2D2D2D2D2D2D2D2D2D2D2D6564
:100490006C696A6120756E61206F7063696F6E2D83
:1004A0002D2D2D2D2D2D2D2D2D2D2D2D2D2D0A00CC
:1004B00020202020312E29206C65657220706F74F9
:1004C000656E63696F6D6574726F0A00202020206D
:1004D000322E29206D6F737472617220636F6469AC
:1004E000676F2041534349490A004153434949201A
:1004F000454E204C4F53204C454453200A00456C38
:100500002076616C6F722064656C20706F74656E0C
:1005100063696F6D6574726F2065733A2000494E90
:10052000475245534520554E20434152414354457F
:10053000523A20004552524F52212121212121219E
:100540002121212121212056414C4F5220494E5634
:10055000414C49444F2021212121212121212121C8
:06056000212121200A0008
:00000001FF
