S0100000706F73746C6162352E73726563EA
S11300000C945A000C946C000C946C000C946C00CE
S11300100C946C000C946C000C946C000C946C00AC
S11300200C946C000C946C000C946C000C946C009C
S11300300C946C000C946C000C946C000C946C008C
S11300400C9435010C946C000C946C000C946C00B2
S11300500C946C000C94B4000C946C000C946C0024
S11300600C946C000C946C000C946C000C946C005C
S11300700C946C000C946C000C946C000C946C004C
S11300800C946C000C946C000C946C000C946C003C
S11300900C946C000C946C000C946C000C946C002C
S11300A00C946C000C946C000C946C000C946C001C
S11300B00C946C0011241FBECFEFD8E0DEBFCDBF7F
S11300C021E0A0E0B1E001C01D92A330B207E1F746
S11300D00E94A7000C94D1010C940000ECE7F0E01E
S11300E010828081806480838081806280838081AB
S11300F086608083EAE7F0E01082808183608083F9
S1130100808180688083808188608083808180642E
S113011080830895F894E1E6F0E080E8808384E049
S113012080830E946E0084B1826084B984B1886047
S113013084B984B1846084B985B18B7F85B9109208
S113014000011092020110920101789408950E9416
S11301508A0060E470E088E391E00E944D010E940F
S113016092010E949E01FFCF1F920F920FB60F9231
S113017011242F935F936F937F938F939F93AF93E8
S1130180BF93EF93FF9380910201823011F183308A
S1130190D1F1813009F042C0809179002EE1829F33
S11301A0C00111246FEF70E00E94A901695F7F4FC5
S11301B07093890060938800ECE7F0E010828081FE
S11301C08064808380818062808380818760808373
S11301D033C0809179002EE1829FC00111246FEF1A
S11301E070E00E94A901695F6093B300ECE7F0E05E
S11301F0108280818064808380818062808380819A
S11302008560808319C0809179008093010196B53F
S1130210981790F085B18B7F85B90EC0ECE7F0E0BC
S11302201082808180648083808180628083808169
S11302308660808310920201809102018F5F809317
S11302400201EAE7F0E0808180648083FF91EF910E
S1130250BF91AF919F918F917F916F915F912F91FA
S11302600F900FBE0F901F9018951F920F920FB60C
S11302700F9211248F9382E386BD85B1846085B982
S113028080910101853118F485B18B7F85B98F91F7
S11302900F900FBE0F901F9018959C0194B192601F
S11302A094B982E88093800088E180938100309340
S11302B087002093860060347105E1F038F46130E2
S11302C0710561F06830710579F026C0611581E02F
S11302D07807B1F061157440C9F01EC0E1E8F0E0A0
S11302E08081816080830895E1E8F0E0808182600C
S11302F080830895E1E8F0E080818360808308953D
S1130300E1E8F0E08081846080830895E1E8F0E032
S11303108081856080830895E1E8F0E080818360D6
S11303208083089584B1886084B983E88093B000A1
S1130330E1EBF0E0808184608083089514BC83E065
S113034085BD82E386BDEEE6F0E080818160808336
S1130350089597FB072E16F4009407D077FD09D073
S11303600E94BD0107FC05D03EF4909581959F4FF6
S11303700895709561957F4F0895AA1BBB1B51E1A9
S113038007C0AA1FBB1FA617B70710F0A61BB70B01
S1130390881F991F5A95A9F780959095BC01CD01A6
S10903A00895F894FFCF5C
S9030000FC
